{
  "contractName": "BankDeposit",
  "abi": [
    {
      "anonymous": false,
      "inputs": [
        {
          "indexed": false,
          "internalType": "address",
          "name": "investor",
          "type": "address"
        },
        {
          "indexed": false,
          "internalType": "uint256",
          "name": "amount",
          "type": "uint256"
        }
      ],
      "name": "Invest",
      "type": "event"
    },
    {
      "anonymous": false,
      "inputs": [
        {
          "indexed": false,
          "internalType": "address",
          "name": "investor",
          "type": "address"
        },
        {
          "indexed": false,
          "internalType": "uint256",
          "name": "amount",
          "type": "uint256"
        }
      ],
      "name": "Withdraw",
      "type": "event"
    },
    {
      "inputs": [
        {
          "internalType": "address",
          "name": "",
          "type": "address"
        }
      ],
      "name": "allPercentWithdraw",
      "outputs": [
        {
          "internalType": "uint256",
          "name": "",
          "type": "uint256"
        }
      ],
      "stateMutability": "view",
      "type": "function",
      "constant": true
    },
    {
      "inputs": [
        {
          "internalType": "address",
          "name": "",
          "type": "address"
        }
      ],
      "name": "balance",
      "outputs": [
        {
          "internalType": "uint256",
          "name": "",
          "type": "uint256"
        }
      ],
      "stateMutability": "view",
      "type": "function",
      "constant": true
    },
    {
      "inputs": [
        {
          "internalType": "address",
          "name": "",
          "type": "address"
        }
      ],
      "name": "percentWithdraw",
      "outputs": [
        {
          "internalType": "uint256",
          "name": "",
          "type": "uint256"
        }
      ],
      "stateMutability": "view",
      "type": "function",
      "constant": true
    },
    {
      "inputs": [],
      "name": "stepTime",
      "outputs": [
        {
          "internalType": "uint256",
          "name": "",
          "type": "uint256"
        }
      ],
      "stateMutability": "view",
      "type": "function",
      "constant": true
    },
    {
      "inputs": [
        {
          "internalType": "address",
          "name": "",
          "type": "address"
        }
      ],
      "name": "time",
      "outputs": [
        {
          "internalType": "uint256",
          "name": "",
          "type": "uint256"
        }
      ],
      "stateMutability": "view",
      "type": "function",
      "constant": true
    },
    {
      "inputs": [
        {
          "internalType": "address",
          "name": "",
          "type": "address"
        }
      ],
      "name": "userDeposit",
      "outputs": [
        {
          "internalType": "uint256",
          "name": "",
          "type": "uint256"
        }
      ],
      "stateMutability": "view",
      "type": "function",
      "constant": true
    },
    {
      "inputs": [],
      "name": "bankAccount",
      "outputs": [],
      "stateMutability": "payable",
      "type": "function",
      "payable": true
    },
    {
      "inputs": [],
      "name": "collectPercent",
      "outputs": [],
      "stateMutability": "nonpayable",
      "type": "function"
    },
    {
      "inputs": [],
      "name": "deposit",
      "outputs": [],
      "stateMutability": "payable",
      "type": "function",
      "payable": true
    },
    {
      "inputs": [],
      "name": "percentRate",
      "outputs": [
        {
          "internalType": "uint256",
          "name": "",
          "type": "uint256"
        }
      ],
      "stateMutability": "view",
      "type": "function",
      "constant": true
    },
    {
      "inputs": [],
      "name": "payoutAmount",
      "outputs": [
        {
          "internalType": "uint256",
          "name": "",
          "type": "uint256"
        }
      ],
      "stateMutability": "view",
      "type": "function",
      "constant": true
    },
    {
      "inputs": [],
      "name": "returnDeposit",
      "outputs": [],
      "stateMutability": "nonpayable",
      "type": "function"
    }
  ],
  "bytecode": "0x608060405260b460055534801561001557600080fd5b506110a9806100256000396000f3fe6080604052600436106100a75760003560e01c80637e88f603116100645780637e88f603146102275780638090114f1461023e578063d0e30db014610269578063d1260edd14610273578063e3d670d7146102d8578063f488fdd01461033d576100a7565b80631cd01e3a146100ac578063377a0f53146100c35780634883c329146100cd5780636b46c8c3146101325780637960eff81461015d5780637c67a3e2146101c2575b600080fd5b3480156100b857600080fd5b506100c1610368565b005b6100cb610821565b005b3480156100d957600080fd5b5061011c600480360360208110156100f057600080fd5b81019080803573ffffffffffffffffffffffffffffffffffffffff169060200190929190505050610837565b6040518082815260200191505060405180910390f35b34801561013e57600080fd5b5061014761084f565b6040518082815260200191505060405180910390f35b34801561016957600080fd5b506101ac6004803603602081101561018057600080fd5b81019080803573ffffffffffffffffffffffffffffffffffffffff1690602001909291905050506109a1565b6040518082815260200191505060405180910390f35b3480156101ce57600080fd5b50610211600480360360208110156101e557600080fd5b81019080803573ffffffffffffffffffffffffffffffffffffffff1690602001909291905050506109b9565b6040518082815260200191505060405180910390f35b34801561023357600080fd5b5061023c6109d1565b005b34801561024a57600080fd5b50610253610b2e565b6040518082815260200191505060405180910390f35b610271610d3d565b005b34801561027f57600080fd5b506102c26004803603602081101561029657600080fd5b81019080803573ffffffffffffffffffffffffffffffffffffffff169060200190929190505050610f81565b6040518082815260200191505060405180910390f35b3480156102e457600080fd5b50610327600480360360208110156102fb57600080fd5b81019080803573ffffffffffffffffffffffffffffffffffffffff169060200190929190505050610f99565b6040518082815260200191505060405180910390f35b34801561034957600080fd5b50610352610fb1565b6040518082815260200191505060405180910390f35b6000600160003373ffffffffffffffffffffffffffffffffffffffff1673ffffffffffffffffffffffffffffffffffffffff168152602001908152602001600020541161041d576040517f08c379a000000000000000000000000000000000000000000000000000000000815260040180806020018281038252601e8152602001807fd09ad0bbd0b8d0b5d0bdd18220d0bdd0b520d0bdd0b0d0b9d0b4d0b5d0bd000081525060200191505060405180910390fd5b610471600554600260003373ffffffffffffffffffffffffffffffffffffffff1673ffffffffffffffffffffffffffffffffffffffff16815260200190815260200160002054610fb790919063ffffffff16565b4210156104c9576040517f08c379a000000000000000000000000000000000000000000000000000000000815260040180806020018281038252603981526020018061103b6039913960400191505060405180910390fd5b600460003373ffffffffffffffffffffffffffffffffffffffff1673ffffffffffffffffffffffffffffffffffffffff1681526020019081526020016000205461055c6002600160003373ffffffffffffffffffffffffffffffffffffffff1673ffffffffffffffffffffffffffffffffffffffff16815260200190815260200160002054610fd390919063ffffffff16565b11610635576000600160003373ffffffffffffffffffffffffffffffffffffffff1673ffffffffffffffffffffffffffffffffffffffff168152602001908152602001600020819055506000600260003373ffffffffffffffffffffffffffffffffffffffff1673ffffffffffffffffffffffffffffffffffffffff168152602001908152602001600020819055506000600360003373ffffffffffffffffffffffffffffffffffffffff1673ffffffffffffffffffffffffffffffffffffffff1681526020019081526020016000208190555061081f565b600061063f61084f565b905061069381600360003373ffffffffffffffffffffffffffffffffffffffff1673ffffffffffffffffffffffffffffffffffffffff16815260200190815260200160002054610fb790919063ffffffff16565b600360003373ffffffffffffffffffffffffffffffffffffffff1673ffffffffffffffffffffffffffffffffffffffff1681526020019081526020016000208190555061072881600460003373ffffffffffffffffffffffffffffffffffffffff1673ffffffffffffffffffffffffffffffffffffffff16815260200190815260200160002054610fb790919063ffffffff16565b600460003373ffffffffffffffffffffffffffffffffffffffff1673ffffffffffffffffffffffffffffffffffffffff168152602001908152602001600020819055503373ffffffffffffffffffffffffffffffffffffffff166108fc829081150290604051600060405180830381858888f193505050501580156107b1573d6000803e3d6000fd5b507f884edad9ce6fa2440d8a54cc123490eb96d2768479d49ff9c7366125a94243643382604051808373ffffffffffffffffffffffffffffffffffffffff1673ffffffffffffffffffffffffffffffffffffffff1681526020018281526020019250505060405180910390a1505b565b66038d7ea4c6800034101561083557600080fd5b565b60046020528060005260406000206000915090505481565b60008061085a610b2e565b905060006108c46005546108b6600260003373ffffffffffffffffffffffffffffffffffffffff1673ffffffffffffffffffffffffffffffffffffffff168152602001908152602001600020544261100a90919063ffffffff16565b61102190919063ffffffff16565b9050600061092d8361091f6064600160003373ffffffffffffffffffffffffffffffffffffffff1673ffffffffffffffffffffffffffffffffffffffff1681526020019081526020016000205461102190919063ffffffff16565b610fd390919063ffffffff16565b90506000610995600360003373ffffffffffffffffffffffffffffffffffffffff1673ffffffffffffffffffffffffffffffffffffffff168152602001908152602001600020546109878585610fd390919063ffffffff16565b61100a90919063ffffffff16565b90508094505050505090565b60036020528060005260406000206000915090505481565b60026020528060005260406000206000915090505481565b6000600160003373ffffffffffffffffffffffffffffffffffffffff1673ffffffffffffffffffffffffffffffffffffffff1681526020019081526020016000205490506000600160003373ffffffffffffffffffffffffffffffffffffffff1673ffffffffffffffffffffffffffffffffffffffff168152602001908152602001600020819055506000600260003373ffffffffffffffffffffffffffffffffffffffff1673ffffffffffffffffffffffffffffffffffffffff168152602001908152602001600020819055506000600360003373ffffffffffffffffffffffffffffffffffffffff1673ffffffffffffffffffffffffffffffffffffffff168152602001908152602001600020819055503373ffffffffffffffffffffffffffffffffffffffff166108fc829081150290604051600060405180830381858888f19350505050158015610b2a573d6000803e3d6000fd5b5050565b6000678ac7230489e80000600160003373ffffffffffffffffffffffffffffffffffffffff1673ffffffffffffffffffffffffffffffffffffffff168152602001908152602001600020541015610b885760059050610d3a565b678ac7230489e80000600160003373ffffffffffffffffffffffffffffffffffffffff1673ffffffffffffffffffffffffffffffffffffffff1681526020019081526020016000205410158015610c2657506801158e460913d00000600160003373ffffffffffffffffffffffffffffffffffffffff1673ffffffffffffffffffffffffffffffffffffffff16815260200190815260200160002054105b15610c345760079050610d3a565b6801158e460913d00000600160003373ffffffffffffffffffffffffffffffffffffffff1673ffffffffffffffffffffffffffffffffffffffff1681526020019081526020016000205410158015610cd357506801a055690d9db80000600160003373ffffffffffffffffffffffffffffffffffffffff1673ffffffffffffffffffffffffffffffffffffffff16815260200190815260200160002054105b15610ce15760089050610d3a565b6801a055690d9db80000600160003373ffffffffffffffffffffffffffffffffffffffff1673ffffffffffffffffffffffffffffffffffffffff1681526020019081526020016000205410610d395760099050610d3a565b5b90565b6000341115610f7f576000600160003373ffffffffffffffffffffffffffffffffffffffff1673ffffffffffffffffffffffffffffffffffffffff16815260200190815260200160002054118015610de75750610de4600554600260003373ffffffffffffffffffffffffffffffffffffffff1673ffffffffffffffffffffffffffffffffffffffff16815260200190815260200160002054610fb790919063ffffffff16565b42115b15610e3a57610df4610368565b6000600360003373ffffffffffffffffffffffffffffffffffffffff1673ffffffffffffffffffffffffffffffffffffffff168152602001908152602001600020819055505b610e8c34600160003373ffffffffffffffffffffffffffffffffffffffff1673ffffffffffffffffffffffffffffffffffffffff16815260200190815260200160002054610fb790919063ffffffff16565b600160003373ffffffffffffffffffffffffffffffffffffffff1673ffffffffffffffffffffffffffffffffffffffff1681526020019081526020016000208190555042600260003373ffffffffffffffffffffffffffffffffffffffff1673ffffffffffffffffffffffffffffffffffffffff168152602001908152602001600020819055507fd90d253a9de34d2fdd5a75ae49ea17fcb43af32fc8ea08cc6d2341991dd3872e3334604051808373ffffffffffffffffffffffffffffffffffffffff1673ffffffffffffffffffffffffffffffffffffffff1681526020018281526020019250505060405180910390a15b565b60006020528060005260406000206000915090505481565b60016020528060005260406000206000915090505481565b60055481565b600080828401905083811015610fc957fe5b8091505092915050565b600080831415610fe65760009050611004565b6000828402905082848281610ff757fe5b0414610fff57fe5b809150505b92915050565b60008282111561101657fe5b818303905092915050565b60008082848161102d57fe5b049050809150509291505056fed0a1d0bbd0b8d188d0bad0bed0bc20d0b1d18bd181d182d180d18bd0b920d0b7d0b0d0bfd180d0bed18120d0b2d18bd0bfd0bbd0b0d182d18ba26469706673582212200438feb916570894b6868feb1e593a62497cde8ff5a6aaf04337822a453995d064736f6c63430006000033",
  "source": "// SPDX-License-Identifier: MIT\npragma solidity >=0.4.22 <0.9.0;\nimport './SafeMath.sol';\ncontract BankDeposit {\n  using SafeMath for uint;\n  mapping(address => uint) public userDeposit;\n  mapping(address => uint) public balance;\n  mapping(address => uint) public time;\n  mapping(address => uint) public percentWithdraw;\n  mapping(address => uint) public allPercentWithdraw;\n  uint public stepTime = 0.05 hours;\n\n  event Invest(address investor, uint256 amount);\n  event Withdraw(address investor, uint256 amount);\n\n  modifier userExist() {\n    require(balance[msg.sender] > 0, \"Клиент не найден\");\n    _;\n  }\n  modifier checkTime() {\n    require(now >= time[msg.sender].add(stepTime), \"Слишком быстрый запрос выплаты\");\n    _;\n  }\n\n  function bankAccount() public payable {\n    require(msg.value >= .001 ether);\n  }\n  function collectPercent() userExist checkTime public {\n    if ((balance[msg.sender].mul(2)) <= allPercentWithdraw[msg.sender]) {\n      balance[msg.sender] = 0;\n      time[msg.sender] = 0;\n      percentWithdraw[msg.sender] = 0;\n    } else {\n      uint payout = payoutAmount();\n      percentWithdraw[msg.sender] = percentWithdraw[msg.sender].add(payout);\n      allPercentWithdraw[msg.sender] = allPercentWithdraw[msg.sender].add(payout);\n      msg.sender.transfer(payout);\n      emit Withdraw(msg.sender, payout);\n    }\n  }\n\n  function deposit() public payable {\n    if (msg.value > 0) {\n      if  (balance[msg.sender] >0 && now > time[msg.sender].add(stepTime)) {\n        collectPercent();\n        percentWithdraw[msg.sender] = 0;\n      }\n      balance[msg.sender] = balance[msg.sender].add(msg.value);\n      time[msg.sender] = now;\n      emit Invest(msg.sender, msg.value);\n    }\n  }\n  function percentRate() public view returns(uint){\n    if (balance[msg.sender] < 10 ether) {\n      return (5);\n    }\n    if (balance[msg.sender] >= 10 ether && balance[msg.sender] < 20 ether) {\n      return (7);\n    }\n    if (balance[msg.sender] >= 20 ether && balance[msg.sender] < 30 ether) {\n      return (8);\n    }\n    if (balance[msg.sender] >= 30 ether) {\n      return (9);\n    }\n  }\n  function payoutAmount() public view returns(uint256) {\n    uint percent = percentRate();\n    uint different = now.sub(time[msg.sender]).div(stepTime);\n    uint rate = balance[msg.sender].div(100).mul(percent);\n    uint withdrawalAmount = rate.mul(different).sub(percentWithdraw[msg.sender]);\n    return withdrawalAmount;\n  }\n  function returnDeposit() public {\n    uint withdrawalAmount = balance[msg.sender];\n    balance[msg.sender] =0;\n    time[msg.sender] = 0;\n    percentWithdraw[msg.sender] = 0;\n    msg.sender.transfer(withdrawalAmount);\n  }\n}\n",
  "sourcePath": "C:\\Users\\FiercePC\\Desktop\\smart\\SimpleFinance2\\contracts\\BankDeposit.sol",
  "compiler": {
    "name": "solc",
    "version": "0.6.0+commit.26b70077.Emscripten.clang"
  },
  "schemaVersion": "3.4.3",
  "updatedAt": "2021-10-13T10:34:59.542Z",
  "networkType": "ethereum",
  "devdoc": {
    "methods": {}
  },
  "userdoc": {
    "methods": {}
  }
}