{
  "contractName": "Insurance",
  "abi": [
    {
      "inputs": [],
      "stateMutability": "nonpayable",
      "type": "constructor"
    },
    {
      "anonymous": false,
      "inputs": [
        {
          "indexed": false,
          "internalType": "uint256",
          "name": "ID",
          "type": "uint256"
        },
        {
          "indexed": false,
          "internalType": "string",
          "name": "testName",
          "type": "string"
        },
        {
          "indexed": false,
          "internalType": "string",
          "name": "date",
          "type": "string"
        },
        {
          "indexed": false,
          "internalType": "uint256",
          "name": "price",
          "type": "uint256"
        }
      ],
      "name": "recordCreated",
      "type": "event"
    },
    {
      "anonymous": false,
      "inputs": [
        {
          "indexed": false,
          "internalType": "uint256",
          "name": "ID",
          "type": "uint256"
        },
        {
          "indexed": false,
          "internalType": "string",
          "name": "testName",
          "type": "string"
        },
        {
          "indexed": false,
          "internalType": "string",
          "name": "date",
          "type": "string"
        },
        {
          "indexed": false,
          "internalType": "uint256",
          "name": "price",
          "type": "uint256"
        }
      ],
      "name": "recordSigned",
      "type": "event"
    },
    {
      "inputs": [
        {
          "internalType": "uint256",
          "name": "",
          "type": "uint256"
        }
      ],
      "name": "all_records",
      "outputs": [
        {
          "internalType": "address",
          "name": "Addr",
          "type": "address"
        },
        {
          "internalType": "uint256",
          "name": "ID",
          "type": "uint256"
        },
        {
          "internalType": "string",
          "name": "Name",
          "type": "string"
        },
        {
          "internalType": "string",
          "name": "date",
          "type": "string"
        },
        {
          "internalType": "uint256",
          "name": "price",
          "type": "uint256"
        },
        {
          "internalType": "bool",
          "name": "isValue",
          "type": "bool"
        },
        {
          "internalType": "uint256",
          "name": "signatureCount",
          "type": "uint256"
        }
      ],
      "stateMutability": "view",
      "type": "function",
      "constant": true
    },
    {
      "inputs": [],
      "name": "hospital",
      "outputs": [
        {
          "internalType": "address payable",
          "name": "",
          "type": "address"
        }
      ],
      "stateMutability": "view",
      "type": "function",
      "constant": true
    },
    {
      "inputs": [],
      "name": "insurer",
      "outputs": [
        {
          "internalType": "address payable",
          "name": "",
          "type": "address"
        }
      ],
      "stateMutability": "view",
      "type": "function",
      "constant": true
    },
    {
      "inputs": [
        {
          "internalType": "uint256",
          "name": "",
          "type": "uint256"
        }
      ],
      "name": "recordsArr",
      "outputs": [
        {
          "internalType": "uint256",
          "name": "",
          "type": "uint256"
        }
      ],
      "stateMutability": "view",
      "type": "function",
      "constant": true
    },
    {
      "inputs": [
        {
          "internalType": "uint256",
          "name": "_ID",
          "type": "uint256"
        },
        {
          "internalType": "string",
          "name": "_Name",
          "type": "string"
        },
        {
          "internalType": "string",
          "name": "_date",
          "type": "string"
        },
        {
          "internalType": "uint256",
          "name": "price",
          "type": "uint256"
        }
      ],
      "name": "newRecord",
      "outputs": [],
      "stateMutability": "nonpayable",
      "type": "function"
    },
    {
      "inputs": [
        {
          "internalType": "uint256",
          "name": "_ID",
          "type": "uint256"
        }
      ],
      "name": "signRecord",
      "outputs": [],
      "stateMutability": "payable",
      "type": "function",
      "payable": true
    }
  ],
  "bytecode": "0x608060405234801561001057600080fd5b5073f67413b1a5643015dc394dc86b1733a72afa007d6000806101000a81548173ffffffffffffffffffffffffffffffffffffffff021916908373ffffffffffffffffffffffffffffffffffffffff16021790555073802776d387a725a474993c835017b9ccb7c66edd600160006101000a81548173ffffffffffffffffffffffffffffffffffffffff021916908373ffffffffffffffffffffffffffffffffffffffff160217905550610cde806100c96000396000f3fe6080604052600436106100555760003560e01c8063549b39fc1461005a5780635bd2108e146100a9578063a508d0ed1461021c578063aa2fedde1461024a578063b6196c68146102a1578063dbc837c514610414575b600080fd5b34801561006657600080fd5b506100936004803603602081101561007d57600080fd5b810190808035906020019092919050505061046b565b6040518082815260200191505060405180910390f35b3480156100b557600080fd5b5061021a600480360360808110156100cc57600080fd5b8101908080359060200190929190803590602001906401000000008111156100f357600080fd5b82018360208201111561010557600080fd5b8035906020019184600183028401116401000000008311171561012757600080fd5b91908080601f016020809104026020016040519081016040528093929190818152602001838380828437600081840152601f19601f8201169050808301925050505050505091929192908035906020019064010000000081111561018a57600080fd5b82018360208201111561019c57600080fd5b803590602001918460018302840111640100000000831117156101be57600080fd5b91908080601f016020809104026020016040519081016040528093929190818152602001838380828437600081840152601f19601f8201169050808301925050505050505091929192908035906020019092919050505061048c565b005b6102486004803603602081101561023257600080fd5b81019080803590602001909291905050506106cc565b005b34801561025657600080fd5b5061025f610a19565b604051808273ffffffffffffffffffffffffffffffffffffffff1673ffffffffffffffffffffffffffffffffffffffff16815260200191505060405180910390f35b3480156102ad57600080fd5b506102da600480360360208110156102c457600080fd5b8101908080359060200190929190505050610a3e565b604051808873ffffffffffffffffffffffffffffffffffffffff1673ffffffffffffffffffffffffffffffffffffffff168152602001878152602001806020018060200186815260200185151515158152602001848152602001838103835288818151815260200191508051906020019080838360005b8381101561036c578082015181840152602081019050610351565b50505050905090810190601f1680156103995780820380516001836020036101000a031916815260200191505b50838103825287818151815260200191508051906020019080838360005b838110156103d25780820151818401526020810190506103b7565b50505050905090810190601f1680156103ff5780820380516001836020036101000a031916815260200191505b50995050505050505050505060405180910390f35b34801561042057600080fd5b50610429610bdd565b604051808273ffffffffffffffffffffffffffffffffffffffff1673ffffffffffffffffffffffffffffffffffffffff16815260200191505060405180910390f35b6003818154811061047857fe5b906000526020600020016000915090505481565b60006002600086815260200190815260200160002090506002600086815260200190815260200160002060050160009054906101000a900460ff16156104d157600080fd5b338160000160006101000a81548173ffffffffffffffffffffffffffffffffffffffff021916908373ffffffffffffffffffffffffffffffffffffffff16021790555084816001018190555083816002019080519060200190610535929190610c03565b508281600301908051906020019061054e929190610c03565b5081816004018190555060018160050160006101000a81548160ff0219169083151502179055506000816006018190555060038590806001815401808255809150506001900390600052602060002001600090919091909150557f280605db1804991625bee5d9ac659a66a80038574752cdda8a85aead408494c78160010154858585604051808581526020018060200180602001848152602001838103835286818151815260200191508051906020019080838360005b83811015610621578082015181840152602081019050610606565b50505050905090810190601f16801561064e5780820380516001836020036101000a031916815260200191505b50838103825285818151815260200191508051906020019080838360005b8381101561068757808201518184015260208101905061066c565b50505050905090810190601f1680156106b45780820380516001836020036101000a031916815260200191505b50965050505050505060405180910390a15050505050565b6000809054906101000a900473ffffffffffffffffffffffffffffffffffffffff1673ffffffffffffffffffffffffffffffffffffffff163373ffffffffffffffffffffffffffffffffffffffff1614806107745750600160009054906101000a900473ffffffffffffffffffffffffffffffffffffffff1673ffffffffffffffffffffffffffffffffffffffff163373ffffffffffffffffffffffffffffffffffffffff16145b61077d57600080fd5b600060026000838152602001908152602001600020905060018160070160003373ffffffffffffffffffffffffffffffffffffffff1673ffffffffffffffffffffffffffffffffffffffff1681526020019081526020016000205414156107e357600080fd5b60018160070160003373ffffffffffffffffffffffffffffffffffffffff1673ffffffffffffffffffffffffffffffffffffffff1681526020019081526020016000208190555080600601600081548092919060010191905055507f28ecfcfe86487dce5d90ed37a865ac7f7a4c769ce8e33096c101c23ab681f9ca81600101548260020183600301846004015460405180858152602001806020018060200184815260200183810383528681815460018160011615610100020316600290048152602001915080546001816001161561010002031660029004801561090a5780601f106108df5761010080835404028352916020019161090a565b820191906000526020600020905b8154815290600101906020018083116108ed57829003601f168201915b505083810382528581815460018160011615610100020316600290048152602001915080546001816001161561010002031660029004801561098d5780601f106109625761010080835404028352916020019161098d565b820191906000526020600020905b81548152906001019060200180831161097057829003601f168201915b5050965050505050505060405180910390a1600281600601541415610a15576000809054906101000a900473ffffffffffffffffffffffffffffffffffffffff1673ffffffffffffffffffffffffffffffffffffffff166108fc479081150290604051600060405180830381858888f19350505050158015610a13573d6000803e3d6000fd5b505b5050565b6000809054906101000a900473ffffffffffffffffffffffffffffffffffffffff1681565b60026020528060005260406000206000915090508060000160009054906101000a900473ffffffffffffffffffffffffffffffffffffffff1690806001015490806002018054600181600116156101000203166002900480601f016020809104026020016040519081016040528092919081815260200182805460018160011615610100020316600290048015610b165780601f10610aeb57610100808354040283529160200191610b16565b820191906000526020600020905b815481529060010190602001808311610af957829003601f168201915b505050505090806003018054600181600116156101000203166002900480601f016020809104026020016040519081016040528092919081815260200182805460018160011615610100020316600290048015610bb45780601f10610b8957610100808354040283529160200191610bb4565b820191906000526020600020905b815481529060010190602001808311610b9757829003601f168201915b5050505050908060040154908060050160009054906101000a900460ff16908060060154905087565b600160009054906101000a900473ffffffffffffffffffffffffffffffffffffffff1681565b828054600181600116156101000203166002900490600052602060002090601f016020900481019282601f10610c4457805160ff1916838001178555610c72565b82800160010185558215610c72579182015b82811115610c71578251825591602001919060010190610c56565b5b509050610c7f9190610c83565b5090565b610ca591905b80821115610ca1576000816000905550600101610c89565b5090565b9056fea26469706673582212205807493079ff6236705d04a29a889730a8d7b38cc66bfccf14e9207600a56b9f64736f6c63430006000033",
  "source": "// SPDX-License-Identifier: MIT\npragma solidity >=0.5.16 <0.9.0;\n\ncontract Insurance {\n  address payable public hospital;\n  address payable public insurer;\n  struct Record {\n    address Addr;\n    uint256 ID;\n    string Name;\n    string date;\n    uint256 price;\n    bool isValue;\n    uint256 signatureCount;\n    mapping (address => uint256) signatures;\n  }\n  modifier signOnly {\n    require (msg.sender == hospital || msg.sender == insurer);\n    _;\n  }\n  \n  constructor() public {\n    hospital = payable(0xF67413b1a5643015dc394Dc86b1733A72Afa007D);\n    insurer = payable(0x802776D387a725A474993c835017B9cCb7C66Edd);\n  }\n  mapping (uint256=> Record) public all_records;\n  uint256[] public recordsArr;\n\n  event recordCreated(uint256 ID, string testName, string date, uint256 price);\n  event recordSigned(uint256 ID,  string testName, string date, uint256 price);\n\n  function newRecord (uint256 _ID, string memory _Name, string memory _date, uint256 price) public {\n    Record storage newrecord = all_records[_ID];\n    require(!all_records[_ID].isValue);\n    newrecord.Addr = msg.sender;\n    newrecord.ID = _ID;\n    newrecord.Name = _Name;\n    newrecord.date = _date;\n    newrecord.price = price;\n    newrecord.isValue = true;\n    newrecord.signatureCount = 0;\n    recordsArr.push(_ID);\n    emit recordCreated(newrecord.ID, _Name, _date, price);\n  }\n  function signRecord(uint256 _ID) signOnly public payable {\n    Record storage records = all_records[_ID];\n    require(records.signatures[msg.sender] != 1);\n    records.signatures[msg.sender] = 1;\n    records.signatureCount++;\n    emit recordSigned(records.ID, records.Name, records.date, records.price);\n    if(records.signatureCount == 2) {\n      hospital.transfer(address(this).balance);\n    }\n  }\n  \n}\n",
  "sourcePath": "C:\\Users\\FiercePC\\Desktop\\smart\\SimpleFinance2\\contracts\\Insurance.sol",
  "compiler": {
    "name": "solc",
    "version": "0.6.0+commit.26b70077.Emscripten.clang"
  },
  "schemaVersion": "3.4.3",
  "updatedAt": "2021-10-11T11:29:34.315Z",
  "networkType": "ethereum",
  "devdoc": {
    "methods": {}
  },
  "userdoc": {
    "methods": {}
  }
}