{
  "contractName": "Split",
  "abi": [
    {
      "inputs": [],
      "payable": false,
      "stateMutability": "nonpayable",
      "type": "constructor"
    },
    {
      "anonymous": false,
      "inputs": [
        {
          "indexed": false,
          "internalType": "address",
          "name": "from",
          "type": "address"
        },
        {
          "indexed": false,
          "internalType": "address",
          "name": "receiver1",
          "type": "address"
        },
        {
          "indexed": false,
          "internalType": "address",
          "name": "receiver2",
          "type": "address"
        },
        {
          "indexed": false,
          "internalType": "address",
          "name": "receiver3",
          "type": "address"
        },
        {
          "indexed": false,
          "internalType": "uint256",
          "name": "amount",
          "type": "uint256"
        }
      ],
      "name": "Sent",
      "type": "event"
    },
    {
      "constant": true,
      "inputs": [
        {
          "internalType": "address",
          "name": "",
          "type": "address"
        }
      ],
      "name": "balances",
      "outputs": [
        {
          "internalType": "uint256",
          "name": "",
          "type": "uint256"
        }
      ],
      "payable": false,
      "stateMutability": "view",
      "type": "function"
    },
    {
      "constant": true,
      "inputs": [],
      "name": "owner",
      "outputs": [
        {
          "internalType": "address",
          "name": "",
          "type": "address"
        }
      ],
      "payable": false,
      "stateMutability": "view",
      "type": "function"
    },
    {
      "constant": false,
      "inputs": [
        {
          "internalType": "address",
          "name": "receiver",
          "type": "address"
        },
        {
          "internalType": "uint256",
          "name": "amount",
          "type": "uint256"
        }
      ],
      "name": "coin",
      "outputs": [],
      "payable": false,
      "stateMutability": "nonpayable",
      "type": "function"
    },
    {
      "constant": false,
      "inputs": [
        {
          "internalType": "uint256",
          "name": "amount",
          "type": "uint256"
        },
        {
          "internalType": "address",
          "name": "receiver1",
          "type": "address"
        },
        {
          "internalType": "address",
          "name": "receiver2",
          "type": "address"
        },
        {
          "internalType": "address",
          "name": "receiver3",
          "type": "address"
        }
      ],
      "name": "send",
      "outputs": [],
      "payable": false,
      "stateMutability": "nonpayable",
      "type": "function"
    }
  ],
  "bytecode": "0x608060405234801561001057600080fd5b50336000806101000a81548173ffffffffffffffffffffffffffffffffffffffff021916908373ffffffffffffffffffffffffffffffffffffffff16021790555061070d806100606000396000f3fe608060405234801561001057600080fd5b506004361061004c5760003560e01c806327e235e31461005157806348749e4e146100a9578063611091a3146101375780638da5cb5b14610185575b600080fd5b6100936004803603602081101561006757600080fd5b81019080803573ffffffffffffffffffffffffffffffffffffffff1690602001909291905050506101cf565b6040518082815260200191505060405180910390f35b610135600480360360808110156100bf57600080fd5b8101908080359060200190929190803573ffffffffffffffffffffffffffffffffffffffff169060200190929190803573ffffffffffffffffffffffffffffffffffffffff169060200190929190803573ffffffffffffffffffffffffffffffffffffffff1690602001909291905050506101e7565b005b6101836004803603604081101561014d57600080fd5b81019080803573ffffffffffffffffffffffffffffffffffffffff169060200190929190803590602001909291905050506104de565b005b61018d610662565b604051808273ffffffffffffffffffffffffffffffffffffffff1673ffffffffffffffffffffffffffffffffffffffff16815260200191505060405180910390f35b60016020528060005260406000206000915090505481565b600160003373ffffffffffffffffffffffffffffffffffffffff1673ffffffffffffffffffffffffffffffffffffffff1681526020019081526020016000205484111561027f576040517f08c379a00000000000000000000000000000000000000000000000000000000081526004018080602001828103825260288152602001806106b16028913960400191505060405180910390fd5b83600160003373ffffffffffffffffffffffffffffffffffffffff1673ffffffffffffffffffffffffffffffffffffffff16815260200190815260200160002060008282540392505081905550600384816102d657fe5b04600160008573ffffffffffffffffffffffffffffffffffffffff1673ffffffffffffffffffffffffffffffffffffffff168152602001908152602001600020600082825401925050819055506003848161032d57fe5b04600160008473ffffffffffffffffffffffffffffffffffffffff1673ffffffffffffffffffffffffffffffffffffffff168152602001908152602001600020600082825401925050819055506003848161038457fe5b04600160008373ffffffffffffffffffffffffffffffffffffffff1673ffffffffffffffffffffffffffffffffffffffff168152602001908152602001600020600082825401925050819055507f95d20b8cc14fb0b07771beba66604f5c580b5dd12afefa9db7c7ee65062332e53384848488604051808673ffffffffffffffffffffffffffffffffffffffff1673ffffffffffffffffffffffffffffffffffffffff1681526020018573ffffffffffffffffffffffffffffffffffffffff1673ffffffffffffffffffffffffffffffffffffffff1681526020018473ffffffffffffffffffffffffffffffffffffffff1673ffffffffffffffffffffffffffffffffffffffff1681526020018373ffffffffffffffffffffffffffffffffffffffff1673ffffffffffffffffffffffffffffffffffffffff1681526020018281526020019550505050505060405180910390a150505050565b6000809054906101000a900473ffffffffffffffffffffffffffffffffffffffff1673ffffffffffffffffffffffffffffffffffffffff163373ffffffffffffffffffffffffffffffffffffffff16146105a0576040517f08c379a000000000000000000000000000000000000000000000000000000000815260040180806020018281038252601e8152602001807fd094d0bed181d182d183d0bf20d0b7d0b0d0bfd180d0b5d189d0b5d0bd21000081525060200191505060405180910390fd5b789f4f2726179a224501d762422c946590d910000000000000008110610611576040517f08c379a00000000000000000000000000000000000000000000000000000000081526004018080602001828103825260298152602001806106886029913960400191505060405180910390fd5b80600160008473ffffffffffffffffffffffffffffffffffffffff1673ffffffffffffffffffffffffffffffffffffffff168152602001908152602001600020600082825401925050819055505050565b6000809054906101000a900473ffffffffffffffffffffffffffffffffffffffff168156fed0a1d0bbd0b8d188d0bad0bed0bc20d0b1d0bed0bbd18cd188d0b0d18f20d181d183d0bcd0bcd0b021d09dd0b5d0b4d0bed181d182d0b0d182d0bed187d0bdd0be20d181d180d0b5d0b4d181d182d0b221a265627a7a72315820b9c29f3b5aedcd8b86e0a286e5b40adec205e878a1ca714a9436e7629c07ddac64736f6c63430005100032",
  "source": "// SPDX-License-Identifier: MIT\n//pragma solidity >= 0.5.0 < 0.7.0\npragma solidity >=0.4.22 <0.9.0;\n\ncontract Split {\n  address public owner;\n  mapping (address => uint) public balances;\n  event Sent(address from, address receiver1, address receiver2, address receiver3, uint amount);\n  \n  constructor() public{\n    owner = msg.sender;\n  }\n\n  function coin(address receiver, uint amount) public {\n    require(msg.sender == owner, \"Доступ запрещен!\");\n    require(amount < 1e60, \"Слишком большая сумма!\");\n    balances[receiver] += amount;\n  }\n\n  function send(uint amount,address receiver1, address receiver2, address receiver3) public {\n    require(amount <= balances[msg.sender], \"Недостаточно средств!\");\n    balances[msg.sender] -= amount;\n    balances[receiver1] += amount/3;\n    balances[receiver2] += amount/3;\n    balances[receiver3] += amount/3;\n    emit Sent(msg.sender, receiver1, receiver2, receiver3, amount);\n  }\n}\n",
  "sourcePath": "C:\\Users\\FiercePC\\Desktop\\smart\\SimpleFinance2\\contracts\\Split.sol",
  "compiler": {
    "name": "solc",
    "version": "0.5.16+commit.9c3226ce.Emscripten.clang"
  },
  "schemaVersion": "3.4.3",
  "updatedAt": "2021-10-07T10:49:51.141Z",
  "networkType": "ethereum",
  "devdoc": {
    "methods": {}
  },
  "userdoc": {
    "methods": {}
  }
}