{
  "contractName": "Dice3",
  "abi": [
    {
      "inputs": [],
      "payable": false,
      "stateMutability": "nonpayable",
      "type": "constructor"
    },
    {
      "constant": true,
      "inputs": [],
      "name": "manager",
      "outputs": [
        {
          "internalType": "address",
          "name": "",
          "type": "address"
        }
      ],
      "payable": false,
      "stateMutability": "view",
      "type": "function"
    },
    {
      "constant": true,
      "inputs": [
        {
          "internalType": "uint256",
          "name": "",
          "type": "uint256"
        }
      ],
      "name": "players",
      "outputs": [
        {
          "internalType": "address payable",
          "name": "",
          "type": "address"
        }
      ],
      "payable": false,
      "stateMutability": "view",
      "type": "function"
    },
    {
      "constant": false,
      "inputs": [],
      "name": "CEO",
      "outputs": [],
      "payable": false,
      "stateMutability": "nonpayable",
      "type": "function"
    },
    {
      "constant": false,
      "inputs": [],
      "name": "Enter",
      "outputs": [
        {
          "internalType": "uint256",
          "name": "",
          "type": "uint256"
        }
      ],
      "payable": true,
      "stateMutability": "payable",
      "type": "function"
    },
    {
      "constant": false,
      "inputs": [],
      "name": "Winner",
      "outputs": [
        {
          "internalType": "string",
          "name": "",
          "type": "string"
        },
        {
          "internalType": "uint256",
          "name": "",
          "type": "uint256"
        },
        {
          "internalType": "uint256",
          "name": "",
          "type": "uint256"
        }
      ],
      "payable": true,
      "stateMutability": "payable",
      "type": "function"
    }
  ],
  "bytecode": "0x608060405234801561001057600080fd5b50336000806101000a81548173ffffffffffffffffffffffffffffffffffffffff021916908373ffffffffffffffffffffffffffffffffffffffff16021790555061070e806100606000396000f3fe60806040526004361061004a5760003560e01c80631097e5791461004f578063481c6a751461006d578063a1088571146100c4578063b2b98ed2146100db578063f71d96cb1461016c575b600080fd5b6100576101e7565b6040518082815260200191505060405180910390f35b34801561007957600080fd5b506100826102b1565b604051808273ffffffffffffffffffffffffffffffffffffffff1673ffffffffffffffffffffffffffffffffffffffff16815260200191505060405180910390f35b3480156100d057600080fd5b506100d96102d6565b005b6100e3610318565b6040518080602001848152602001838152602001828103825285818151815260200191508051906020019080838360005b8381101561012f578082015181840152602081019050610114565b50505050905090810190601f16801561015c5780820380516001836020036101000a031916815260200191505b5094505050505060405180910390f35b34801561017857600080fd5b506101a56004803603602081101561018f57600080fd5b81019080803590602001909291905050506105c1565b604051808273ffffffffffffffffffffffffffffffffffffffff1673ffffffffffffffffffffffffffffffffffffffff16815260200191505060405180910390f35b600066038d7ea4c680003411610248576040517f08c379a00000000000000000000000000000000000000000000000000000000081526004018080602001828103825260258152602001806106b56025913960400191505060405180910390fd5b60013390806001815401808255809150509060018203906000526020600020016000909192909190916101000a81548173ffffffffffffffffffffffffffffffffffffffff021916908373ffffffffffffffffffffffffffffffffffffffff1602179055505090565b6000809054906101000a900473ffffffffffffffffffffffffffffffffffffffff1681565b336000806101000a81548173ffffffffffffffffffffffffffffffffffffffff021916908373ffffffffffffffffffffffffffffffffffffffff160217905550565b60606000806000809054906101000a900473ffffffffffffffffffffffffffffffffffffffff1673ffffffffffffffffffffffffffffffffffffffff163373ffffffffffffffffffffffffffffffffffffffff16146103df576040517f08c379a00000000000000000000000000000000000000000000000000000000081526004018080602001828103825260158152602001807fd09dd0b5d18220d0b4d0bed181d182d183d0bfd0b0000000000000000000000081525060200191505060405180910390fd5b60006103eb60006105fd565b905060006103f960016105fd565b9050808211156104c957600160008154811061041157fe5b9060005260206000200160009054906101000a900473ffffffffffffffffffffffffffffffffffffffff1673ffffffffffffffffffffffffffffffffffffffff166108fc479081150290604051600060405180830381858888f19350505050158015610481573d6000803e3d6000fd5b5081816040518060400160405280601b81526020017fd09fd0bed0b1d0b5d0b4d0b8d0bb20d0b8d0b3d180d0bed0ba20310000000000815250919094509450945050506105bc565b8082111561059657600180815481106104de57fe5b9060005260206000200160009054906101000a900473ffffffffffffffffffffffffffffffffffffffff1673ffffffffffffffffffffffffffffffffffffffff166108fc479081150290604051600060405180830381858888f1935050505015801561054e573d6000803e3d6000fd5b5081816040518060400160405280601b81526020017fd09fd0bed0b1d0b5d0b4d0b8d0bb20d0b8d0b3d180d0bed0ba20320000000000815250919094509450945050506105bc565b818160405180606001604052806030815260200161068560309139919094509450945050505b909192565b600181815481106105ce57fe5b906000526020600020016000915054906101000a900473ffffffffffffffffffffffffffffffffffffffff1681565b600080600a423385604051602001808481526020018373ffffffffffffffffffffffffffffffffffffffff1673ffffffffffffffffffffffffffffffffffffffff1660601b815260140182815260200193505050506040516020818303038152906040528051906020012060001c8161067257fe5b0690506002810190508091505091905056fed09dd0b8d187d18cd18f2c20d0b2d0b0d188d0b820d181d182d0b0d0b2d0bad0b820d181d0b3d0bed180d0b5d0bbd0b8d0a1d182d0b0d0b2d0bad0b020d181d0bbd0b8d188d0bad0bed0bc20d0bcd0b0d0bbd0b021a265627a7a72315820256ff9e7426ee230447058214c3604c39769afc6a66ab9f257837cb755d735ce64736f6c63430005100032",
  "source": "// SPDX-License-Identifier: MIT\npragma solidity >=0.4.22 <0.9.0;\n\ncontract Dice3 {\n  address public manager;\n  address payable[] public players;\n\n  modifier onlyManager() {\n    require(manager==msg.sender, \"Доступ запрещен!\");\n    _;\n  }\n  constructor () public {\n    manager = msg.sender;\n  }\n\n\n  function CEO() public {\n    manager = msg.sender;\n  }\n\n  function Enter() public payable returns(uint) {\n    require(msg.value > .001 ether, \"Ставка слишком мала!\");\n    players.push(msg.sender);\n  }\n\n  function getRandomNumber(uint number) private view returns(uint) {\n    uint brosok = uint(keccak256(abi.encodePacked(block.timestamp, msg.sender, number))) % 10;\n    brosok = brosok + 2;\n    return(brosok);\n  }\n  function Winner() public payable restricted returns (string memory, uint, uint) {\n    uint player1 = getRandomNumber(0);\n    uint player2 = getRandomNumber(1);\n    if(player1 > player2) {\n      players[0].transfer(address(this).balance);\n      return(\"Победил игрок 1\", player1, player2);\n    }\n  \n    else if(player1 > player2) {\n      players[1].transfer(address(this).balance);\n      return(\"Победил игрок 2\", player1, player2);\n    }\n      \n    else \n      return(\"Ничья, ваши ставки сгорели\", player1, player2);\n  }\n  modifier restricted () {\n    require(msg.sender == manager, \"Нет доступа\");\n    _;\n  }\n}\n\n",
  "sourcePath": "C:\\Users\\FiercePC\\Desktop\\smart\\SIMPLEGAMES\\contracts\\Dice3.sol",
  "compiler": {
    "name": "solc",
    "version": "0.5.16+commit.9c3226ce.Emscripten.clang"
  },
  "schemaVersion": "3.4.3",
  "updatedAt": "2021-10-15T09:48:32.829Z",
  "networkType": "ethereum",
  "devdoc": {
    "methods": {}
  },
  "userdoc": {
    "methods": {}
  }
}