{
  "contractName": "Dice",
  "abi": [
    {
      "constant": true,
      "inputs": [],
      "name": "Winner",
      "outputs": [
        {
          "internalType": "string",
          "name": "",
          "type": "string"
        },
        {
          "internalType": "uint256",
          "name": "",
          "type": "uint256"
        }
      ],
      "payable": false,
      "stateMutability": "view",
      "type": "function"
    }
  ],
  "bytecode": "0x608060405234801561001057600080fd5b5061026e806100206000396000f3fe608060405234801561001057600080fd5b506004361061002b5760003560e01c8063b2b98ed214610030575b600080fd5b6100386100ba565b6040518080602001838152602001828103825284818151815260200191508051906020019080838360005b8381101561007e578082015181840152602081019050610063565b50505050905090810190601f1680156100ab5780820380516001836020036101000a031916815260200191505b50935050505060405180910390f35b60606000806100c960006101b2565b905060006100d760016101b2565b90508082111561012457816040518060400160405280601b81526020017fd09fd0bed0b1d0b5d0b4d0b8d0bb20d0b8d0b3d180d0bed0ba20310000000000815250909350935050506101ae565b8082111561016f57806040518060400160405280601b81526020017fd09fd0bed0b1d0b5d0b4d0b8d0bb20d0b8d0b3d180d0bed0ba20320000000000815250909350935050506101ae565b816040518060400160405280600a81526020017fd09dd0b8d187d18cd18f00000000000000000000000000000000000000000000815250909350935050505b9091565b600080600a423385604051602001808481526020018373ffffffffffffffffffffffffffffffffffffffff1673ffffffffffffffffffffffffffffffffffffffff1660601b815260140182815260200193505050506040516020818303038152906040528051906020012060001c8161022757fe5b0690506002810190508091505091905056fea265627a7a7231582064613e16e5a2d2d94d1b07998460130921126e6567ab50d5b4ae94cb8edb004064736f6c63430005100032",
  "source": "// SPDX-License-Identifier: MIT\npragma solidity >=0.4.22 <0.9.0;\n\ncontract Dice {\n  function getRandomNumber(uint number) private view returns(uint) {\n    uint brosok = uint(keccak256(abi.encodePacked(block.timestamp, msg.sender, number))) % 10;\n    brosok = brosok + 2;\n    return(brosok);\n  }\n  function Winner() public view returns (string memory, uint) {\n    uint player1 = getRandomNumber(0);\n    uint player2 = getRandomNumber(1);\n    if(player1 > player2)\n      return(\"Победил игрок 1\", player1);\n    else if(player1 > player2)\n      return(\"Победил игрок 2\", player2);\n    else \n      return(\"Ничья\", player1);\n  }\n}\n",
  "sourcePath": "C:\\Users\\FiercePC\\Desktop\\smart\\SIMPLEGAMES\\contracts\\Dice.sol",
  "compiler": {
    "name": "solc",
    "version": "0.5.16+commit.9c3226ce.Emscripten.clang"
  },
  "schemaVersion": "3.4.3",
  "updatedAt": "2021-10-15T09:48:31.566Z",
  "devdoc": {
    "methods": {}
  },
  "userdoc": {
    "methods": {}
  }
}