{
  "contractName": "DragonFarm",
  "abi": [
    {
      "anonymous": false,
      "inputs": [
        {
          "indexed": false,
          "internalType": "string",
          "name": "name",
          "type": "string"
        },
        {
          "indexed": false,
          "internalType": "uint256",
          "name": "dna",
          "type": "uint256"
        }
      ],
      "name": "NewDragon",
      "type": "event"
    },
    {
      "constant": true,
      "inputs": [
        {
          "internalType": "uint256",
          "name": "",
          "type": "uint256"
        }
      ],
      "name": "dragons",
      "outputs": [
        {
          "internalType": "string",
          "name": "name",
          "type": "string"
        },
        {
          "internalType": "uint256",
          "name": "dna",
          "type": "uint256"
        }
      ],
      "payable": false,
      "stateMutability": "view",
      "type": "function"
    },
    {
      "constant": false,
      "inputs": [
        {
          "internalType": "string",
          "name": "_name",
          "type": "string"
        }
      ],
      "name": "CreateDragon",
      "outputs": [],
      "payable": false,
      "stateMutability": "nonpayable",
      "type": "function"
    }
  ],
  "bytecode": "0x608060405234801561001057600080fd5b50610523806100206000396000f3fe608060405234801561001057600080fd5b50600436106100365760003560e01c80630fab557b1461003b578063d2a59d69146100f6575b600080fd5b6100f46004803603602081101561005157600080fd5b810190808035906020019064010000000081111561006e57600080fd5b82018360208201111561008057600080fd5b803590602001918460018302840111640100000000831117156100a257600080fd5b91908080601f016020809104026020016040519081016040528093929190818152602001838380828437600081840152601f19601f8201169050808301925050505050505091929192905050506101a4565b005b6101226004803603602081101561010c57600080fd5b81019080803590602001909291905050506101bf565b6040518080602001838152602001828103825284818151815260200191508051906020019080838360005b8381101561016857808201518184015260208101905061014d565b50505050905090810190601f1680156101955780820380516001836020036101000a031916815260200191505b50935050505060405180910390f35b60006101af82610288565b90506101bb8282610335565b5050565b600081815481106101cc57fe5b9060005260206000209060020201600091509050806000018054600181600116156101000203166002900480601f0160208091040260200160405190810160405280929190818152602001828054600181600116156101000203166002900480156102785780601f1061024d57610100808354040283529160200191610278565b820191906000526020600020905b81548152906001019060200180831161025b57829003601f168201915b5050505050908060010154905082565b600080826040516020018080602001828103825283818151815260200191508051906020019080838360005b838110156102cf5780820151818401526020810190506102b4565b50505050905090810190601f1680156102fc5780820380516001836020036101000a031916815260200191505b50925050506040516020818303038152906040528051906020012060001c9050662386f26fc10000818161032c57fe5b06915050919050565b6000604051806040016040528084815260200183815250908060018154018082558091505090600182039060005260206000209060020201600090919290919091506000820151816000019080519060200190610393929190610449565b50602082015181600101555050507f31a340e7bf1d08ef34d4f27b310bb98fa96c3d4d8fc0779a635c9158da0de8a882826040518080602001838152602001828103825284818151815260200191508051906020019080838360005b8381101561040a5780820151818401526020810190506103ef565b50505050905090810190601f1680156104375780820380516001836020036101000a031916815260200191505b50935050505060405180910390a15050565b828054600181600116156101000203166002900490600052602060002090601f016020900481019282601f1061048a57805160ff19168380011785556104b8565b828001600101855582156104b8579182015b828111156104b757825182559160200191906001019061049c565b5b5090506104c591906104c9565b5090565b6104eb91905b808211156104e75760008160009055506001016104cf565b5090565b9056fea265627a7a723158204f85a928df2f25e2f6f2b216f826f41b1f77cb24ead53a017d0b663a6a6eba8d64736f6c63430005100032",
  "source": "// SPDX-License-Identifier: MIT\npragma solidity >=0.4.22 <0.9.0;\n\ncontract DragonFarm {\n  event NewDragon(string name, uint dna);\n  struct Dragon {\n    string name;\n    uint dna;\n  }\n  Dragon[] public dragons;\n  function GenerateRandomDna(string memory _str) private view returns (uint) {\n    uint rand = uint(keccak256((abi.encode(_str))));\n    return rand % (10 **16);\n  }\n  function AddDragon(string memory _name, uint _dna) private {\n    dragons.push(Dragon(_name, _dna));\n    emit NewDragon(_name, _dna);\n  }\n  function CreateDragon(string memory _name) public {\n    uint randDna = GenerateRandomDna(_name);\n    AddDragon(_name, randDna);\n  }\n}\n",
  "sourcePath": "C:\\Users\\FiercePC\\Desktop\\smart\\SIMPLEGAMES\\contracts\\DragonFarm.sol",
  "compiler": {
    "name": "solc",
    "version": "0.5.16+commit.9c3226ce.Emscripten.clang"
  },
  "schemaVersion": "3.4.3",
  "updatedAt": "2021-10-15T09:48:31.577Z",
  "devdoc": {
    "methods": {}
  },
  "userdoc": {
    "methods": {}
  }
}