{
  "contractName": "DragonFarm2",
  "abi": [
    {
      "anonymous": false,
      "inputs": [
        {
          "indexed": false,
          "internalType": "uint256",
          "name": "id",
          "type": "uint256"
        },
        {
          "indexed": false,
          "internalType": "string",
          "name": "name",
          "type": "string"
        },
        {
          "indexed": false,
          "internalType": "uint256",
          "name": "dna",
          "type": "uint256"
        }
      ],
      "name": "NewDragon",
      "type": "event"
    },
    {
      "constant": true,
      "inputs": [
        {
          "internalType": "uint256",
          "name": "",
          "type": "uint256"
        }
      ],
      "name": "DragonOwner",
      "outputs": [
        {
          "internalType": "address",
          "name": "",
          "type": "address"
        }
      ],
      "payable": false,
      "stateMutability": "view",
      "type": "function"
    },
    {
      "constant": true,
      "inputs": [
        {
          "internalType": "uint256",
          "name": "",
          "type": "uint256"
        }
      ],
      "name": "dragons",
      "outputs": [
        {
          "internalType": "uint256",
          "name": "id",
          "type": "uint256"
        },
        {
          "internalType": "string",
          "name": "name",
          "type": "string"
        },
        {
          "internalType": "uint256",
          "name": "dna",
          "type": "uint256"
        }
      ],
      "payable": false,
      "stateMutability": "view",
      "type": "function"
    },
    {
      "constant": false,
      "inputs": [
        {
          "internalType": "string",
          "name": "name",
          "type": "string"
        }
      ],
      "name": "CreateDragon",
      "outputs": [],
      "payable": false,
      "stateMutability": "nonpayable",
      "type": "function"
    }
  ],
  "bytecode": "0x608060405234801561001057600080fd5b506106cc806100206000396000f3fe608060405234801561001057600080fd5b50600436106100415760003560e01c80630c50c644146100465780630fab557b146100b4578063d2a59d691461016f575b600080fd5b6100726004803603602081101561005c57600080fd5b8101908080359060200190929190505050610224565b604051808273ffffffffffffffffffffffffffffffffffffffff1673ffffffffffffffffffffffffffffffffffffffff16815260200191505060405180910390f35b61016d600480360360208110156100ca57600080fd5b81019080803590602001906401000000008111156100e757600080fd5b8201836020820111156100f957600080fd5b8035906020019184600183028401116401000000008311171561011b57600080fd5b91908080601f016020809104026020016040519081016040528093929190818152602001838380828437600081840152601f19601f820116905080830192505050505050509192919290505050610257565b005b61019b6004803603602081101561018557600080fd5b8101908080359060200190929190505050610476565b6040518084815260200180602001838152602001828103825284818151815260200191508051906020019080838360005b838110156101e75780820151818401526020810190506101cc565b50505050905090810190601f1680156102145780820380516001836020036101000a031916815260200191505b5094505050505060405180910390f35b60016020528060005260406000206000915054906101000a900473ffffffffffffffffffffffffffffffffffffffff1681565b600061026282610545565b90506000600260003373ffffffffffffffffffffffffffffffffffffffff1673ffffffffffffffffffffffffffffffffffffffff1681526020019081526020016000205490506000604051806060016040528083815260200185815260200184815250908060018154018082558091505090600182039060005260206000209060030201600090919290919091506000820151816000015560208201518160010190805190602001906103169291906105f2565b5060408201518160020155505050336001600083815260200190815260200160002060006101000a81548173ffffffffffffffffffffffffffffffffffffffff021916908373ffffffffffffffffffffffffffffffffffffffff1602179055507f094a968afe62c9f0ce8d6395ff90deb5cbe7809a9ea66019ef5c61335ab3f1178184846040518084815260200180602001838152602001828103825284818151815260200191508051906020019080838360005b838110156103e65780820151818401526020810190506103cb565b50505050905090810190601f1680156104135780820380516001836020036101000a031916815260200191505b5094505050505060405180910390a1600260003373ffffffffffffffffffffffffffffffffffffffff1673ffffffffffffffffffffffffffffffffffffffff16815260200190815260200160002060008154809291906001019190505550505050565b6000818154811061048357fe5b9060005260206000209060030201600091509050806000015490806001018054600181600116156101000203166002900480601f0160208091040260200160405190810160405280929190818152602001828054600181600116156101000203166002900480156105355780601f1061050a57610100808354040283529160200191610535565b820191906000526020600020905b81548152906001019060200180831161051857829003601f168201915b5050505050908060020154905083565b600080826040516020018080602001828103825283818151815260200191508051906020019080838360005b8381101561058c578082015181840152602081019050610571565b50505050905090810190601f1680156105b95780820380516001836020036101000a031916815260200191505b50925050506040516020818303038152906040528051906020012060001c9050662386f26fc1000081816105e957fe5b06915050919050565b828054600181600116156101000203166002900490600052602060002090601f016020900481019282601f1061063357805160ff1916838001178555610661565b82800160010185558215610661579182015b82811115610660578251825591602001919060010190610645565b5b50905061066e9190610672565b5090565b61069491905b80821115610690576000816000905550600101610678565b5090565b9056fea265627a7a7231582049272f33bca744ecc2382214db757407f24ce07983be798257e9faac8f3e34fe64736f6c63430005100032",
  "source": "/// SPDX-License-Identifier: MIT\npragma solidity >=0.4.22 <0.9.0;\n\ncontract DragonFarm2 {\n  event NewDragon(uint id, string name, uint dna);\n  struct Dragon {\n    uint id;\n    string name;\n    uint dna;\n  }\n  Dragon[] public dragons;\n  mapping (uint => address)  public DragonOwner;\n  mapping (address => uint) ownerDragons;\n\n  function GenerateRandomDna(string memory _str) internal pure returns (uint) {\n    uint rand = uint(keccak256((abi.encode(_str))));\n    return rand % (10 **16);\n  }\n   \n  function CreateDragon(string memory name) public {\n    uint dna = GenerateRandomDna(name);\n    uint id = ownerDragons[msg.sender];\n    dragons.push(Dragon(id, name, dna));\n    DragonOwner[id] = msg.sender;\n    emit NewDragon(id, name, dna);\n    ownerDragons[msg.sender]++;\n  }\n}",
  "sourcePath": "C:\\Users\\FiercePC\\Desktop\\smart\\SIMPLEGAMES\\contracts\\DragonFarm2.sol",
  "compiler": {
    "name": "solc",
    "version": "0.5.16+commit.9c3226ce.Emscripten.clang"
  },
  "schemaVersion": "3.4.3",
  "updatedAt": "2021-10-01T10:14:04.806Z",
  "devdoc": {
    "methods": {}
  },
  "userdoc": {
    "methods": {}
  }
}