{
  "contractName": "Address",
  "abi": [
    {
      "constant": false,
      "inputs": [
        {
          "internalType": "address",
          "name": "userAddress",
          "type": "address"
        }
      ],
      "name": "set",
      "outputs": [],
      "payable": false,
      "stateMutability": "nonpayable",
      "type": "function"
    },
    {
      "constant": true,
      "inputs": [
        {
          "internalType": "address",
          "name": "userAddress",
          "type": "address"
        }
      ],
      "name": "get",
      "outputs": [
        {
          "internalType": "uint256",
          "name": "",
          "type": "uint256"
        }
      ],
      "payable": false,
      "stateMutability": "view",
      "type": "function"
    },
    {
      "constant": true,
      "inputs": [],
      "name": "getAll",
      "outputs": [
        {
          "internalType": "address[]",
          "name": "",
          "type": "address[]"
        }
      ],
      "payable": false,
      "stateMutability": "view",
      "type": "function"
    }
  ],
  "bytecode": "0x608060405234801561001057600080fd5b50610347806100206000396000f3fe608060405234801561001057600080fd5b50600436106100415760003560e01c80632801617e1461004657806353ed51431461008a578063c2bc2efc146100e9575b600080fd5b6100886004803603602081101561005c57600080fd5b81019080803573ffffffffffffffffffffffffffffffffffffffff169060200190929190505050610141565b005b6100926101a9565b6040518080602001828103825283818151815260200191508051906020019060200280838360005b838110156100d55780820151818401526020810190506100ba565b505050509050019250505060405180910390f35b61012b600480360360208110156100ff57600080fd5b81019080803573ffffffffffffffffffffffffffffffffffffffff16906020019092919050505061027e565b6040518082815260200191505060405180910390f35b80600080600154815260200190815260200160002060006101000a81548173ffffffffffffffffffffffffffffffffffffffff021916908373ffffffffffffffffffffffffffffffffffffffff16021790555060016000815480929190600101919050555050565b6060806001546040519080825280602002602001820160405280156101dd5781602001602082028038833980820191505090505b50905060008090505b6001548110156102765760008082815260200190815260200160002060009054906101000a900473ffffffffffffffffffffffffffffffffffffffff1682828151811061022f57fe5b602002602001019073ffffffffffffffffffffffffffffffffffffffff16908173ffffffffffffffffffffffffffffffffffffffff168152505080806001019150506101e6565b508091505090565b600080600090505b600154811161030b578273ffffffffffffffffffffffffffffffffffffffff1660008083815260200190815260200160002060009054906101000a900473ffffffffffffffffffffffffffffffffffffffff1673ffffffffffffffffffffffffffffffffffffffff1614156102fe578091505061030d565b8080600101915050610286565b505b91905056fea265627a7a7231582023299c14a2e42bcd418e77bd66d0fec53d5f32620b4980f072ea398881c3be7e64736f6c63430005100032",
  "source": "// SPDX-License-Identifier: MIT\npragma solidity >=0.4.22 <0.9.0;\n\ncontract Address {\n  mapping(uint=>address) addresses;\n  uint Count;\n  function set(address userAddress) public {\n    addresses[Count] = userAddress;\n    Count++;\n  }  \n  function get(address userAddress) public view returns (uint) {\n    for (uint i = 0; i <= Count; i++) {\n      if(addresses[i] == userAddress)\n      return i;\n    }\n  }\n  function getAll() public view returns (address[] memory) {\n    address[] memory all = new address[](Count);\n    for (uint i = 0; i < Count; i++) {\n      all[i] = addresses[i];\n    }\n    return all;\n  }\n}\n",
  "sourcePath": "C:\\Users\\FiercePC\\Desktop\\smart\\SIMPLEDATA\\contracts\\Address.sol",
  "compiler": {
    "name": "solc",
    "version": "0.5.16+commit.9c3226ce.Emscripten.clang"
  },
  "schemaVersion": "3.4.3",
  "updatedAt": "2021-09-27T11:02:46.746Z",
  "networkType": "ethereum",
  "devdoc": {
    "methods": {}
  },
  "userdoc": {
    "methods": {}
  }
}