{
  "contractName": "Fibonachi2",
  "abi": [
    {
      "constant": true,
      "inputs": [
        {
          "internalType": "uint256",
          "name": "amount",
          "type": "uint256"
        }
      ],
      "name": "calculateNumbers",
      "outputs": [
        {
          "internalType": "uint256[]",
          "name": "",
          "type": "uint256[]"
        }
      ],
      "payable": false,
      "stateMutability": "pure",
      "type": "function"
    },
    {
      "constant": true,
      "inputs": [
        {
          "internalType": "uint256",
          "name": "amount",
          "type": "uint256"
        }
      ],
      "name": "calculateSum",
      "outputs": [
        {
          "internalType": "uint256",
          "name": "",
          "type": "uint256"
        }
      ],
      "payable": false,
      "stateMutability": "pure",
      "type": "function"
    },
    {
      "constant": true,
      "inputs": [],
      "name": "get",
      "outputs": [
        {
          "internalType": "uint256",
          "name": "",
          "type": "uint256"
        }
      ],
      "payable": false,
      "stateMutability": "view",
      "type": "function"
    }
  ],
  "bytecode": "0x608060405234801561001057600080fd5b506103c0806100206000396000f3fe608060405234801561001057600080fd5b50600436106100415760003560e01c80635f8932ff146100465780636d4ce63c14610088578063dedc3fab146100a6575b600080fd5b6100726004803603602081101561005c57600080fd5b8101908080359060200190929190505050610129565b6040518082815260200191505060405180910390f35b61009061017b565b6040518082815260200191505060405180910390f35b6100d2600480360360208110156100bc57600080fd5b8101908080359060200190929190505050610209565b6040518080602001828103825283818151815260200191508051906020019060200280838360005b838110156101155780820151818401526020810190506100fa565b505050509050019250505060405180910390f35b6000606061013683610209565b9050600080905060008090505b848110156101705782818151811061015757fe5b6020026020010151820191508080600101915050610143565b508092505050919050565b600080600a905060006009423384604051602001808481526020018373ffffffffffffffffffffffffffffffffffffffff1673ffffffffffffffffffffffffffffffffffffffff1660601b815260140182815260200193505050506040516020818303038152906040528051906020012060001c816101f657fe5b0690508080600101915050809250505090565b606060648210610264576040517f08c379a000000000000000000000000000000000000000000000000000000000815260040180806020018281038252603281526020018061035a6032913960400191505060405180910390fd5b6060826040519080825280602002602001820160405280156102955781602001602082028038833980820191505090505b509050600080905060006001905060008511156102c75781836000815181106102ba57fe5b6020026020010181815250505b60018511156102eb5780836001815181106102de57fe5b6020026020010181815250505b600285111561034e5760008090505b6002860381101561034c5782820184600283018151811061031757fe5b60200260200101818152505081925083600282018151811061033557fe5b6020026020010151915080806001019150506102fa565b505b82935050505091905056fed097d0bdd0b0d187d0b5d0bdd0b8d0b520d181d0bbd0b8d188d0bad0bed0bc20d0b2d0b5d0bbd0b8d0bad0be20f09f988321a265627a7a723158206de8e9af28ba676aa88a53da0dd7b6d7a951d9485601b4f57483ff9ead83638d64736f6c63430005100032",
  "source": "// SPDX-License-Identifier: MIT\npragma solidity >=0.4.0 <0.9.0;\ncontract Fibonachi2 {\n    function calculateNumbers(uint256 amount) public pure returns (uint[] memory) {\n        require(amount < 100, \"Ð—Ð½Ð°Ñ‡ÐµÐ½Ð¸Ðµ ÑÐ»Ð¸ÑˆÐºÐ¾Ð¼ Ð²ÐµÐ»Ð¸ÐºÐ¾ ðŸ˜ƒ!\");\n        uint[] memory numbers = new uint[](amount);\n        \n        uint256 prevNumber = 0;\n        uint256 number = 1;\n        \n        if (amount > 0) {\n            numbers[0] = prevNumber;\n        }\n        \n        if (amount > 1) {\n            numbers[1] = number;\n        }\n        \n        if (amount > 2) {\n            for (uint256 i = 0; i < amount - 2; i++) {\n                numbers[i + 2] = number + prevNumber;\n                prevNumber = number;\n                number = numbers[i + 2];\n            }\n        }\n        \n        return numbers;\n    }\n    \n    \n    function calculateSum(uint amount) public pure returns (uint) {\n        uint[] memory numbers = calculateNumbers(amount);\n        uint sum = 0;\n        for (uint i = 0; i < amount; i++) {\n            sum += numbers[i];\n        }\n        return sum;\n    }\n    \n    function get() public view returns (uint) {\n        uint length = 10;\n        uint randomnumber = uint(keccak256(abi.encodePacked(block.timestamp, msg.sender, length))) % 9;\n        randomnumber++;\n        return randomnumber;\n    }\n}",
  "sourcePath": "C:\\Users\\FiercePC\\Desktop\\smart\\SIMPLEDATA\\contracts\\Fibonachi2.sol",
  "compiler": {
    "name": "solc",
    "version": "0.5.16+commit.9c3226ce.Emscripten.clang"
  },
  "schemaVersion": "3.4.3",
  "updatedAt": "2021-09-27T11:02:48.533Z",
  "networkType": "ethereum",
  "devdoc": {
    "methods": {}
  },
  "userdoc": {
    "methods": {}
  }
}