{
  "contractName": "Grades",
  "abi": [
    {
      "constant": true,
      "inputs": [
        {
          "internalType": "string",
          "name": "",
          "type": "string"
        }
      ],
      "name": "results",
      "outputs": [
        {
          "internalType": "uint256",
          "name": "amount",
          "type": "uint256"
        },
        {
          "internalType": "uint256",
          "name": "sum",
          "type": "uint256"
        },
        {
          "internalType": "uint256",
          "name": "average",
          "type": "uint256"
        }
      ],
      "payable": false,
      "stateMutability": "view",
      "type": "function"
    },
    {
      "constant": false,
      "inputs": [
        {
          "internalType": "string",
          "name": "title",
          "type": "string"
        },
        {
          "internalType": "uint256",
          "name": "grade",
          "type": "uint256"
        }
      ],
      "name": "MyGrade",
      "outputs": [],
      "payable": false,
      "stateMutability": "nonpayable",
      "type": "function"
    }
  ],
  "bytecode": "0x608060405234801561001057600080fd5b506104b2806100206000396000f3fe608060405234801561001057600080fd5b50600436106100365760003560e01c80634b13d17d1461003b578063feef496414610118575b600080fd5b6100f46004803603602081101561005157600080fd5b810190808035906020019064010000000081111561006e57600080fd5b82018360208201111561008057600080fd5b803590602001918460018302840111640100000000831117156100a257600080fd5b91908080601f016020809104026020016040519081016040528093929190818152602001838380828437600081840152601f19601f8201169050808301925050505050505091929192905050506101dd565b60405180848152602001838152602001828152602001935050505060405180910390f35b6101db6004803603604081101561012e57600080fd5b810190808035906020019064010000000081111561014b57600080fd5b82018360208201111561015d57600080fd5b8035906020019184600183028401116401000000008311171561017f57600080fd5b91908080601f016020809104026020016040519081016040528093929190818152602001838380828437600081840152601f19601f8201169050808301925050505050505091929192908035906020019092919050505061021d565b005b6000818051602081018201805184825260208301602085012081835280955050505050506000915090508060000154908060010154908060020154905083565b60008111801561022d5750600681105b61023657600080fd5b6000826040518082805190602001908083835b6020831061026c5780518252602082019150602081019050602083039250610249565b6001836020036101000a038019825116818451168082178552505050505050905001915050908152602001604051809103902060000160008154809291906001019190505550806000836040518082805190602001908083835b602083106102e957805182526020820191506020810190506020830392506102c6565b6001836020036101000a0380198251168184511680821785525050505050509050019150509081526020016040518091039020600101600082825401925050819055506000826040518082805190602001908083835b60208310610362578051825260208201915060208101905060208303925061033f565b6001836020036101000a0380198251168184511680821785525050505050509050019150509081526020016040518091039020600001546000836040518082805190602001908083835b602083106103cf57805182526020820191506020810190506020830392506103ac565b6001836020036101000a0380198251168184511680821785525050505050509050019150509081526020016040518091039020600101548161040d57fe5b046000836040518082805190602001908083835b602083106104445780518252602082019150602081019050602083039250610421565b6001836020036101000a03801982511681845116808217855250505050505090500191505090815260200160405180910390205050505056fea265627a7a72315820950c890d5254f06a0d7bb8093d03ff214304c330b84015f1b1da5513e5eef84464736f6c63430005100032",
  "source": "// SPDX-License-Identifier: MIT\npragma solidity >=0.4.22 <0.9.0;\n\ncontract Grades {\n  struct Calc {\n    uint amount;\n    uint sum;\n    uint average;\n  }\n  mapping(string => Calc) public results;\n  function MyGrade(string memory title, uint grade) public{\n    require(grade > 0 && grade < 6);\n    results[title].amount++;\n    results[title].sum += grade;\n    results[title].average - uint(results[title].sum/results[title].amount);\n  }\n  //constructor() public {\n  //}\n}\n",
  "sourcePath": "C:\\Users\\FiercePC\\Desktop\\smart\\SIMPLEDATA\\contracts\\Grades.sol",
  "compiler": {
    "name": "solc",
    "version": "0.5.16+commit.9c3226ce.Emscripten.clang"
  },
  "schemaVersion": "3.4.3",
  "updatedAt": "2021-09-27T11:02:45.798Z",
  "networkType": "ethereum",
  "devdoc": {
    "methods": {}
  },
  "userdoc": {
    "methods": {}
  }
}