{
  "contractName": "NewNote",
  "abi": [
    {
      "constant": true,
      "inputs": [
        {
          "internalType": "string",
          "name": "",
          "type": "string"
        }
      ],
      "name": "users",
      "outputs": [
        {
          "internalType": "string",
          "name": "name",
          "type": "string"
        },
        {
          "internalType": "uint256",
          "name": "number",
          "type": "uint256"
        },
        {
          "internalType": "string",
          "name": "adress",
          "type": "string"
        }
      ],
      "payable": false,
      "stateMutability": "view",
      "type": "function"
    },
    {
      "constant": false,
      "inputs": [
        {
          "internalType": "string",
          "name": "name",
          "type": "string"
        },
        {
          "internalType": "uint256",
          "name": "number",
          "type": "uint256"
        },
        {
          "internalType": "string",
          "name": "adress",
          "type": "string"
        }
      ],
      "name": "setUser",
      "outputs": [],
      "payable": false,
      "stateMutability": "nonpayable",
      "type": "function"
    },
    {
      "constant": true,
      "inputs": [
        {
          "internalType": "string",
          "name": "name",
          "type": "string"
        }
      ],
      "name": "getUser",
      "outputs": [
        {
          "internalType": "uint256",
          "name": "number",
          "type": "uint256"
        },
        {
          "internalType": "string",
          "name": "adress",
          "type": "string"
        }
      ],
      "payable": false,
      "stateMutability": "view",
      "type": "function"
    }
  ],
  "bytecode": "0x608060405234801561001057600080fd5b50610920806100206000396000f3fe608060405234801561001057600080fd5b50600436106100415760003560e01c80631d7067711461004657806331feb671146101a2578063689e1c03146102dd575b600080fd5b6101a06004803603606081101561005c57600080fd5b810190808035906020019064010000000081111561007957600080fd5b82018360208201111561008b57600080fd5b803590602001918460018302840111640100000000831117156100ad57600080fd5b91908080601f016020809104026020016040519081016040528093929190818152602001838380828437600081840152601f19601f820116905080830192505050505050509192919290803590602001909291908035906020019064010000000081111561011a57600080fd5b82018360208201111561012c57600080fd5b8035906020019184600183028401116401000000008311171561014e57600080fd5b91908080601f016020809104026020016040519081016040528093929190818152602001838380828437600081840152601f19601f820116905080830192505050505050509192919290505050610484565b005b61025b600480360360208110156101b857600080fd5b81019080803590602001906401000000008111156101d557600080fd5b8201836020820111156101e757600080fd5b8035906020019184600183028401116401000000008311171561020957600080fd5b91908080601f016020809104026020016040519081016040528093929190818152602001838380828437600081840152601f19601f820116905080830192505050505050509192919290505050610554565b6040518083815260200180602001828103825283818151815260200191508051906020019080838360005b838110156102a1578082015181840152602081019050610286565b50505050905090810190601f1680156102ce5780820380516001836020036101000a031916815260200191505b50935050505060405180910390f35b610396600480360360208110156102f357600080fd5b810190808035906020019064010000000081111561031057600080fd5b82018360208201111561032257600080fd5b8035906020019184600183028401116401000000008311171561034457600080fd5b91908080601f016020809104026020016040519081016040528093929190818152602001838380828437600081840152601f19601f8201169050808301925050505050505091929192905050506106d6565b604051808060200184815260200180602001838103835286818151815260200191508051906020019080838360005b838110156103e05780820151818401526020810190506103c5565b50505050905090810190601f16801561040d5780820380516001836020036101000a031916815260200191505b50838103825284818151815260200191508051906020019080838360005b8381101561044657808201518184015260208101905061042b565b50505050905090810190601f1680156104735780820380516001836020036101000a031916815260200191505b509550505050505060405180910390f35b6040518060600160405280848152602001838152602001828152506000846040518082805190602001908083835b602083106104d557805182526020820191506020810190506020830392506104b2565b6001836020036101000a03801982511681845116808217855250505050505090500191505090815260200160405180910390206000820151816000019080519060200190610524929190610846565b5060208201518160010155604082015181600201908051906020019061054b929190610846565b50905050505050565b600060606000836040518082805190602001908083835b6020831061058e578051825260208201915060208101905060208303925061056b565b6001836020036101000a0380198251168184511680821785525050505050509050019150509081526020016040518091039020600101546000846040518082805190602001908083835b602083106105fb57805182526020820191506020810190506020830392506105d8565b6001836020036101000a0380198251168184511680821785525050505050509050019150509081526020016040518091039020600201808054600181600116156101000203166002900480601f0160208091040260200160405190810160405280929190818152602001828054600181600116156101000203166002900480156106c65780601f1061069b576101008083540402835291602001916106c6565b820191906000526020600020905b8154815290600101906020018083116106a957829003601f168201915b5050505050905091509150915091565b600081805160208101820180518482526020830160208501208183528095505050505050600091509050806000018054600181600116156101000203166002900480601f0160208091040260200160405190810160405280929190818152602001828054600181600116156101000203166002900480156107985780601f1061076d57610100808354040283529160200191610798565b820191906000526020600020905b81548152906001019060200180831161077b57829003601f168201915b505050505090806001015490806002018054600181600116156101000203166002900480601f01602080910402602001604051908101604052809291908181526020018280546001816001161561010002031660029004801561083c5780601f106108115761010080835404028352916020019161083c565b820191906000526020600020905b81548152906001019060200180831161081f57829003601f168201915b5050505050905083565b828054600181600116156101000203166002900490600052602060002090601f016020900481019282601f1061088757805160ff19168380011785556108b5565b828001600101855582156108b5579182015b828111156108b4578251825591602001919060010190610899565b5b5090506108c291906108c6565b5090565b6108e891905b808211156108e45760008160009055506001016108cc565b5090565b9056fea265627a7a7231582069f1410d8cba4ad903d8fd8c853b6475a622ce1878daff21400d70907836690b64736f6c63430005100032",
  "source": "// SPDX-License-Identifier: MIT\npragma solidity >=0.4.22 <0.9.0;\n\ncontract NewNote {\n  struct user{\n    string name;\n    uint number;\n    string adress;\n  }\n  mapping(string => user) public users;\n\n  function setUser(string memory name, uint number, string memory adress) public {\n    users[name] = user(name,number,adress);\n  }\n\n\n\n  function getUser(string memory name) public view returns (uint number, string memory adress) {\n    return (users[name].number, users[name].adress);\n  }\n}\n\n",
  "sourcePath": "C:\\Users\\FiercePC\\Desktop\\smart\\SIMPLEDATA\\contracts\\NewNote.sol",
  "compiler": {
    "name": "solc",
    "version": "0.5.16+commit.9c3226ce.Emscripten.clang"
  },
  "schemaVersion": "3.4.3",
  "updatedAt": "2021-09-27T11:02:43.841Z",
  "networkType": "ethereum",
  "devdoc": {
    "methods": {}
  },
  "userdoc": {
    "methods": {}
  }
}