{
  "contractName": "Calculator",
  "abi": [
    {
      "constant": true,
      "inputs": [
        {
          "internalType": "uint256",
          "name": "x",
          "type": "uint256"
        },
        {
          "internalType": "bytes32",
          "name": "oper",
          "type": "bytes32"
        },
        {
          "internalType": "uint256",
          "name": "y",
          "type": "uint256"
        }
      ],
      "name": "getCalk",
      "outputs": [
        {
          "internalType": "uint256",
          "name": "",
          "type": "uint256"
        }
      ],
      "payable": false,
      "stateMutability": "pure",
      "type": "function"
    }
  ],
  "bytecode": "0x608060405234801561001057600080fd5b50610188806100206000396000f3fe608060405234801561001057600080fd5b506004361061002b5760003560e01c8063321fe0f814610030575b600080fd5b6100706004803603606081101561004657600080fd5b81019080803590602001909291908035906020019092919080359060200190929190505050610086565b6040518082815260200191505060405180910390f35b6000807f2b000000000000000000000000000000000000000000000000000000000000008414156100b75782850190505b7f2d000000000000000000000000000000000000000000000000000000000000008414156100e55782850390505b7f2a000000000000000000000000000000000000000000000000000000000000008414156101135782850290505b7f2f000000000000000000000000000000000000000000000000000000000000008414156101485782858161014457fe5b0490505b80915050939250505056fea265627a7a72315820098851921af438595e820ac9afb8737eb421c08565d9591e492d05cacf09950664736f6c63430005100032",
  "source": "// SPDX-License-Identifier: MIT\npragma solidity >=0.4.22 <0.9.0;\n\ncontract Calculator {\n  function getCalk(uint256 x, bytes32 oper, uint256 y) public pure returns (uint256){\n    uint256 res;\n    if (oper == \"+\") res = x + y;\n    if (oper == \"-\") res = x - y;\n    if (oper == \"*\") res = x * y;\n    if (oper == \"/\") res = x / y;\n    return res;\n  }\n}\n",
  "sourcePath": "C:\\Users\\FiercePC\\Desktop\\smart\\SimpleContracts\\contracts\\Calculator.sol",
  "compiler": {
    "name": "solc",
    "version": "0.5.16+commit.9c3226ce.Emscripten.clang"
  },
  "schemaVersion": "3.4.3",
  "updatedAt": "2021-09-21T09:44:57.664Z",
  "networkType": "ethereum",
  "devdoc": {
    "methods": {}
  },
  "userdoc": {
    "methods": {}
  }
}