{
  "contractName": "Fibonachi",
  "abi": [
    {
      "constant": true,
      "inputs": [
        {
          "internalType": "uint256",
          "name": "index",
          "type": "uint256"
        }
      ],
      "name": "getValue",
      "outputs": [
        {
          "internalType": "uint256",
          "name": "",
          "type": "uint256"
        }
      ],
      "payable": false,
      "stateMutability": "pure",
      "type": "function"
    }
  ],
  "bytecode": "0x608060405234801561001057600080fd5b50610106806100206000396000f3fe6080604052348015600f57600080fd5b506004361060285760003560e01c80630ff4c91614602d575b600080fd5b605660048036036020811015604157600080fd5b8101908080359060200190929190505050606c565b6040518082815260200191505060405180910390f35b60008060008090506000600190506000851415608c5781935050505060cc565b6001851415609e5780935050505060cc565b60008090505b60028603811160c4578282019350819250839150808060010191505060a4565b508293505050505b91905056fea265627a7a72315820d3382e3806abe1559a06fcc772343b2b87ba749e00d68196283f94c66a666b6164736f6c63430005100032",
  "source": "pragma solidity >=0.4.22 <0.9.0;\n\ncontract Fibonachi {\n  function getValue(uint256 index) public pure returns (uint256) {\n    uint256 res;\n    uint256 prevNumber = 0;\n    uint256 number = 1;\n    if (index == 0) {\n      return prevNumber;\n    } else if (index == 1) {\n      return number;\n    }\n    for (uint256 i = 0; i <= index - 2; i++) {\n      res = number + prevNumber;\n      prevNumber = number;\n      number = res;\n    }\n    return res;\n  }\n}\n",
  "sourcePath": "C:\\Users\\FiercePC\\Desktop\\smart\\SimpleContracts\\contracts\\Fibonachi.sol",
  "compiler": {
    "name": "solc",
    "version": "0.5.16+commit.9c3226ce.Emscripten.clang"
  },
  "schemaVersion": "3.4.3",
  "updatedAt": "2021-09-21T09:44:58.418Z",
  "networkType": "ethereum",
  "devdoc": {
    "methods": {}
  },
  "userdoc": {
    "methods": {}
  }
}